{
    "contractName": "Insuralink",
    "abi": [
        {
            "constant": false,
            "inputs": [],
            "name": "renounceOwnership",
            "outputs": [],
            "payable": false,
            "stateMutability": "nonpayable",
            "type": "function"
        },
        {
            "constant": true,
            "inputs": [
                {
                    "name": "",
                    "type": "uint256"
                }
            ],
            "name": "activeContracts",
            "outputs": [
                {
                    "components": [
                        {
                            "name": "seller",
                            "type": "address"
                        },
                        {
                            "name": "paymentFrequency",
                            "type": "uint256"
                        },
                        {
                            "name": "paymentAmount",
                            "type": "uint256"
                        },
                        {
                            "name": "totalNumberOfPayments",
                            "type": "uint256"
                        },
                        {
                            "name": "insuranceAmount",
                            "type": "uint256"
                        },
                        {
                            "name": "validUntil",
                            "type": "uint256"
                        },
                        {
                            "name": "description",
                            "type": "string"
                        },
                        {
                            "name": "id",
                            "type": "uint256"
                        }
                    ],
                    "name": "contractTemplate",
                    "type": "tuple"
                },
                {
                    "name": "buyer",
                    "type": "address"
                },
                {
                    "name": "id",
                    "type": "uint256"
                },
                {
                    "name": "valid",
                    "type": "bool"
                },
                {
                    "name": "numberOfPayments",
                    "type": "uint256"
                },
                {
                    "name": "lastPaymentTime",
                    "type": "uint256"
                }
            ],
            "payable": false,
            "stateMutability": "view",
            "type": "function"
        },
        {
            "constant": true,
            "inputs": [],
            "name": "owner",
            "outputs": [
                {
                    "name": "",
                    "type": "address"
                }
            ],
            "payable": false,
            "stateMutability": "view",
            "type": "function"
        },
        {
            "constant": true,
            "inputs": [
                {
                    "name": "",
                    "type": "uint256"
                }
            ],
            "name": "contractTemplates",
            "outputs": [
                {
                    "name": "seller",
                    "type": "address"
                },
                {
                    "name": "paymentFrequency",
                    "type": "uint256"
                },
                {
                    "name": "paymentAmount",
                    "type": "uint256"
                },
                {
                    "name": "totalNumberOfPayments",
                    "type": "uint256"
                },
                {
                    "name": "insuranceAmount",
                    "type": "uint256"
                },
                {
                    "name": "validUntil",
                    "type": "uint256"
                },
                {
                    "name": "description",
                    "type": "string"
                },
                {
                    "name": "id",
                    "type": "uint256"
                }
            ],
            "payable": false,
            "stateMutability": "view",
            "type": "function"
        },
        {
            "constant": true,
            "inputs": [],
            "name": "activeCounter",
            "outputs": [
                {
                    "name": "",
                    "type": "uint256"
                }
            ],
            "payable": false,
            "stateMutability": "view",
            "type": "function"
        },
        {
            "constant": true,
            "inputs": [],
            "name": "templateCounter",
            "outputs": [
                {
                    "name": "",
                    "type": "uint256"
                }
            ],
            "payable": false,
            "stateMutability": "view",
            "type": "function"
        },
        {
            "constant": true,
            "inputs": [],
            "name": "DAI",
            "outputs": [
                {
                    "name": "",
                    "type": "address"
                }
            ],
            "payable": false,
            "stateMutability": "view",
            "type": "function"
        },
        {
            "constant": false,
            "inputs": [
                {
                    "name": "_newOwner",
                    "type": "address"
                }
            ],
            "name": "transferOwnership",
            "outputs": [],
            "payable": false,
            "stateMutability": "nonpayable",
            "type": "function"
        },
        {
            "inputs": [
                {
                    "name": "_link",
                    "type": "address"
                },
                {
                    "name": "daiToken",
                    "type": "address"
                }
            ],
            "payable": false,
            "stateMutability": "nonpayable",
            "type": "constructor"
        },
        {
            "anonymous": false,
            "inputs": [
                {
                    "indexed": true,
                    "name": "previousOwner",
                    "type": "address"
                }
            ],
            "name": "OwnershipRenounced",
            "type": "event"
        },
        {
            "anonymous": false,
            "inputs": [
                {
                    "indexed": true,
                    "name": "previousOwner",
                    "type": "address"
                },
                {
                    "indexed": true,
                    "name": "newOwner",
                    "type": "address"
                }
            ],
            "name": "OwnershipTransferred",
            "type": "event"
        },
        {
            "anonymous": false,
            "inputs": [
                {
                    "indexed": true,
                    "name": "id",
                    "type": "bytes32"
                }
            ],
            "name": "ChainlinkRequested",
            "type": "event"
        },
        {
            "anonymous": false,
            "inputs": [
                {
                    "indexed": true,
                    "name": "id",
                    "type": "bytes32"
                }
            ],
            "name": "ChainlinkFulfilled",
            "type": "event"
        },
        {
            "anonymous": false,
            "inputs": [
                {
                    "indexed": true,
                    "name": "id",
                    "type": "bytes32"
                }
            ],
            "name": "ChainlinkCancelled",
            "type": "event"
        },
        {
            "constant": false,
            "inputs": [
                {
                    "name": "paymentFrequency",
                    "type": "uint256"
                },
                {
                    "name": "paymentAmount",
                    "type": "uint256"
                },
                {
                    "name": "insuranceAmount",
                    "type": "uint256"
                },
                {
                    "name": "length",
                    "type": "uint256"
                },
                {
                    "name": "description",
                    "type": "string"
                },
                {
                    "name": "totalNumberOfPayments",
                    "type": "uint256"
                }
            ],
            "name": "createInsuranceContractTemplate",
            "outputs": [
                {
                    "name": "",
                    "type": "uint256"
                }
            ],
            "payable": false,
            "stateMutability": "nonpayable",
            "type": "function"
        },
        {
            "constant": false,
            "inputs": [
                {
                    "name": "contractTemplateId",
                    "type": "uint256"
                }
            ],
            "name": "buyContract",
            "outputs": [],
            "payable": false,
            "stateMutability": "nonpayable",
            "type": "function"
        },
        {
            "constant": false,
            "inputs": [
                {
                    "name": "contractId",
                    "type": "uint256"
                }
            ],
            "name": "payoutInsurance",
            "outputs": [
                {
                    "name": "",
                    "type": "bool"
                }
            ],
            "payable": false,
            "stateMutability": "nonpayable",
            "type": "function"
        },
        {
            "constant": false,
            "inputs": [
                {
                    "name": "contractId",
                    "type": "uint256"
                }
            ],
            "name": "payPremium",
            "outputs": [
                {
                    "name": "",
                    "type": "bool"
                }
            ],
            "payable": false,
            "stateMutability": "nonpayable",
            "type": "function"
        },
        {
            "constant": true,
            "inputs": [
                {
                    "name": "contractId",
                    "type": "uint256"
                }
            ],
            "name": "getContract",
            "outputs": [
                {
                    "name": "",
                    "type": "address"
                },
                {
                    "name": "",
                    "type": "address"
                },
                {
                    "name": "",
                    "type": "uint256"
                },
                {
                    "name": "",
                    "type": "uint256"
                },
                {
                    "name": "",
                    "type": "bool"
                },
                {
                    "name": "",
                    "type": "uint256"
                },
                {
                    "name": "",
                    "type": "uint256"
                }
            ],
            "payable": false,
            "stateMutability": "view",
            "type": "function"
        },
        {
            "constant": true,
            "inputs": [
                {
                    "name": "contractId",
                    "type": "uint256"
                }
            ],
            "name": "getActiveContractTemplate",
            "outputs": [
                {
                    "name": "",
                    "type": "address"
                },
                {
                    "name": "",
                    "type": "uint256"
                },
                {
                    "name": "",
                    "type": "uint256"
                },
                {
                    "name": "",
                    "type": "uint256"
                },
                {
                    "name": "",
                    "type": "uint256"
                },
                {
                    "name": "",
                    "type": "string"
                },
                {
                    "name": "",
                    "type": "uint256"
                }
            ],
            "payable": false,
            "stateMutability": "view",
            "type": "function"
        },
        {
            "constant": true,
            "inputs": [],
            "name": "getChainlinkToken",
            "outputs": [
                {
                    "name": "",
                    "type": "address"
                }
            ],
            "payable": false,
            "stateMutability": "view",
            "type": "function"
        },
        {
            "constant": false,
            "inputs": [
                {
                    "name": "_requestId",
                    "type": "bytes32"
                },
                {
                    "name": "_data",
                    "type": "uint256"
                }
            ],
            "name": "fulfill",
            "outputs": [],
            "payable": false,
            "stateMutability": "nonpayable",
            "type": "function"
        },
        {
            "constant": false,
            "inputs": [],
            "name": "withdrawLink",
            "outputs": [],
            "payable": false,
            "stateMutability": "nonpayable",
            "type": "function"
        },
        {
            "constant": false,
            "inputs": [
                {
                    "name": "_requestId",
                    "type": "bytes32"
                },
                {
                    "name": "_payment",
                    "type": "uint256"
                },
                {
                    "name": "_callbackFunctionId",
                    "type": "bytes4"
                },
                {
                    "name": "_expiration",
                    "type": "uint256"
                }
            ],
            "name": "cancelRequest",
            "outputs": [],
            "payable": false,
            "stateMutability": "nonpayable",
            "type": "function"
        }
    ],
    "bytecode": "0x608060405260016004553480156200001657600080fd5b5060405160408062002c27833981018060405281019080805190602001909291908051906020019092919050505033600660006101000a81548173ffffffffffffffffffffffffffffffffffffffff021916908373ffffffffffffffffffffffffffffffffffffffff160217905550600073ffffffffffffffffffffffffffffffffffffffff168273ffffffffffffffffffffffffffffffffffffffff161415620000da57620000d462000159640100000000026401000000009004565b620000f5565b620000f4826200022a640100000000026401000000009004565b5b80600760006101000a81548173ffffffffffffffffffffffffffffffffffffffff021916908373ffffffffffffffffffffffffffffffffffffffff1602179055506200015160006200026e640100000000026401000000009004565b5050620002b2565b6200022873c89bd4e1632d3a43cb03aaad5262cbe4038bc57173ffffffffffffffffffffffffffffffffffffffff166338cc48316040518163ffffffff167c0100000000000000000000000000000000000000000000000000000000028152600401602060405180830381600087803b158015620001d657600080fd5b505af1158015620001eb573d6000803e3d6000fd5b505050506040513d60208110156200020257600080fd5b81019080805190602001909291905050506200022a640100000000026401000000009004565b565b80600260006101000a81548173ffffffffffffffffffffffffffffffffffffffff021916908373ffffffffffffffffffffffffffffffffffffffff16021790555050565b80600360006101000a81548173ffffffffffffffffffffffffffffffffffffffff021916908373ffffffffffffffffffffffffffffffffffffffff16021790555050565b61296580620002c26000396000f3006080604052600436106100fc576000357c0100000000000000000000000000000000000000000000000000000000900463ffffffff1680630c842ad314610101578063165d35e1146101465780632b9862931461019d5780634357855e146102995780634364b26e146102d45780636ebc8c8614610319578063715018a6146103e057806372d00e9f146103f75780638da5cb5b1461048b5780638dc654a2146104e25780639d506c65146104f9578063d0bd7b38146105fc578063d285680d14610627578063d439944514610652578063e0bab4c41461067f578063ec65d0f8146106d6578063f2fde38b14610744578063fb35c05914610787575b600080fd5b34801561010d57600080fd5b5061012c60048036038101908080359060200190929190505050610836565b604051808215151515815260200191505060405180910390f35b34801561015257600080fd5b5061015b610b96565b604051808273ffffffffffffffffffffffffffffffffffffffff1673ffffffffffffffffffffffffffffffffffffffff16815260200191505060405180910390f35b3480156101a957600080fd5b506101c860048036038101908080359060200190929190505050610ba5565b604051808873ffffffffffffffffffffffffffffffffffffffff1673ffffffffffffffffffffffffffffffffffffffff16815260200187815260200186815260200185815260200184815260200180602001838152602001828103825284818151815260200191508051906020019080838360005b8381101561025857808201518184015260208101905061023d565b50505050905090810190601f1680156102855780820380516001836020036101000a031916815260200191505b509850505050505050505060405180910390f35b3480156102a557600080fd5b506102d2600480360381019080803560001916906020019092919080359060200190929190505050610d52565b005b3480156102e057600080fd5b506102ff60048036038101908080359060200190929190505050610ecb565b604051808215151515815260200191505060405180910390f35b34801561032557600080fd5b50610344600480360381019080803590602001909291905050506112af565b604051808873ffffffffffffffffffffffffffffffffffffffff1673ffffffffffffffffffffffffffffffffffffffff1681526020018773ffffffffffffffffffffffffffffffffffffffff1673ffffffffffffffffffffffffffffffffffffffff1681526020018681526020018581526020018415151515815260200183815260200182815260200197505050505050505060405180910390f35b3480156103ec57600080fd5b506103f5611505565b005b34801561040357600080fd5b506104226004803603810190808035906020019092919050505061160a565b604051808781526020018673ffffffffffffffffffffffffffffffffffffffff1673ffffffffffffffffffffffffffffffffffffffff16815260200185815260200184151515158152602001838152602001828152602001965050505050505060405180910390f35b34801561049757600080fd5b506104a06117b3565b604051808273ffffffffffffffffffffffffffffffffffffffff1673ffffffffffffffffffffffffffffffffffffffff16815260200191505060405180910390f35b3480156104ee57600080fd5b506104f76117d9565b005b34801561050557600080fd5b5061052460048036038101908080359060200190929190505050611a6b565b604051808973ffffffffffffffffffffffffffffffffffffffff1673ffffffffffffffffffffffffffffffffffffffff16815260200188815260200187815260200186815260200185815260200184815260200180602001838152602001828103825284818151815260200191508051906020019080838360005b838110156105ba57808201518184015260208101905061059f565b50505050905090810190601f1680156105e75780820380516001836020036101000a031916815260200191505b50995050505050505050505060405180910390f35b34801561060857600080fd5b50610611611b6b565b6040518082815260200191505060405180910390f35b34801561063357600080fd5b5061063c611b71565b6040518082815260200191505060405180910390f35b34801561065e57600080fd5b5061067d60048036038101908080359060200190929190505050611b77565b005b34801561068b57600080fd5b506106946120d7565b604051808273ffffffffffffffffffffffffffffffffffffffff1673ffffffffffffffffffffffffffffffffffffffff16815260200191505060405180910390f35b3480156106e257600080fd5b5061074260048036038101908080356000191690602001909291908035906020019092919080357bffffffffffffffffffffffffffffffffffffffffffffffffffffffff19169060200190929190803590602001909291905050506120fd565b005b34801561075057600080fd5b50610785600480360381019080803573ffffffffffffffffffffffffffffffffffffffff16906020019092919050505061216b565b005b34801561079357600080fd5b5061082060048036038101908080359060200190929190803590602001909291908035906020019092919080359060200190929190803590602001908201803590602001908080601f0160208091040260200160405190810160405280939291908181526020018383808284378201915050505050509192919290803590602001909291905050506121d3565b6040518082815260200191505060405180910390f35b6000610840612786565b600b600084815260200190815260200160002060c060405190810160405290816000820161010060405190810160405290816000820160009054906101000a900473ffffffffffffffffffffffffffffffffffffffff1673ffffffffffffffffffffffffffffffffffffffff1673ffffffffffffffffffffffffffffffffffffffff1681526020016001820154815260200160028201548152602001600382015481526020016004820154815260200160058201548152602001600682018054600181600116156101000203166002900480601f0160208091040260200160405190810160405280929190818152602001828054600181600116156101000203166002900480156109925780601f1061096757610100808354040283529160200191610992565b820191906000526020600020905b81548152906001019060200180831161097557829003601f168201915b5050505050815260200160078201548152505081526020016008820160009054906101000a900473ffffffffffffffffffffffffffffffffffffffff1673ffffffffffffffffffffffffffffffffffffffff1673ffffffffffffffffffffffffffffffffffffffff16815260200160098201548152602001600a820160009054906101000a900460ff16151515158152602001600b8201548152602001600c82015481525050905080606001511515610a4a57600080fd5b600760009054906101000a900473ffffffffffffffffffffffffffffffffffffffff1673ffffffffffffffffffffffffffffffffffffffff1663a9059cbb82602001518360000151608001516040518363ffffffff167c0100000000000000000000000000000000000000000000000000000000028152600401808373ffffffffffffffffffffffffffffffffffffffff1673ffffffffffffffffffffffffffffffffffffffff16815260200182815260200192505050602060405180830381600087803b158015610b1b57600080fd5b505af1158015610b2f573d6000803e3d6000fd5b505050506040513d6020811015610b4557600080fd5b81019080805190602001909291905050501515610b6157600080fd5b6000600b6000858152602001908152602001600020600a0160006101000a81548160ff02191690831515021790555050919050565b6000610ba06124c5565b905090565b600080600080600060606000610bb96127dc565b600b60008a815260200190815260200160002060000161010060405190810160405290816000820160009054906101000a900473ffffffffffffffffffffffffffffffffffffffff1673ffffffffffffffffffffffffffffffffffffffff1673ffffffffffffffffffffffffffffffffffffffff1681526020016001820154815260200160028201548152602001600382015481526020016004820154815260200160058201548152602001600682018054600181600116156101000203166002900480601f016020809104026020016040519081016040528092919081815260200182805460018160011615610100020316600290048015610cfd5780601f10610cd257610100808354040283529160200191610cfd565b820191906000526020600020905b815481529060010190602001808311610ce057829003601f168201915b50505050508152602001600782015481525050905080600001518160200151826040015183608001518460a001518560c001518660e00151819150975097509750975097509750975050919395979092949650565b8160056000826000191660001916815260200190815260200160002060009054906101000a900473ffffffffffffffffffffffffffffffffffffffff1673ffffffffffffffffffffffffffffffffffffffff163373ffffffffffffffffffffffffffffffffffffffff16141515610e57576040517f08c379a00000000000000000000000000000000000000000000000000000000081526004018080602001828103825260288152602001807f536f75726365206d75737420626520746865206f7261636c65206f662074686581526020017f207265717565737400000000000000000000000000000000000000000000000081525060400191505060405180910390fd5b60056000826000191660001916815260200190815260200160002060006101000a81549073ffffffffffffffffffffffffffffffffffffffff021916905580600019167f7cc135e0cebb02c3480ae5d74d377283180a2601f8f644edf7987b009316c63a60405160405180910390a2505050565b6000610ed5612786565b600b600084815260200190815260200160002060c060405190810160405290816000820161010060405190810160405290816000820160009054906101000a900473ffffffffffffffffffffffffffffffffffffffff1673ffffffffffffffffffffffffffffffffffffffff1673ffffffffffffffffffffffffffffffffffffffff1681526020016001820154815260200160028201548152602001600382015481526020016004820154815260200160058201548152602001600682018054600181600116156101000203166002900480601f0160208091040260200160405190810160405280929190818152602001828054600181600116156101000203166002900480156110275780601f10610ffc57610100808354040283529160200191611027565b820191906000526020600020905b81548152906001019060200180831161100a57829003601f168201915b5050505050815260200160078201548152505081526020016008820160009054906101000a900473ffffffffffffffffffffffffffffffffffffffff1673ffffffffffffffffffffffffffffffffffffffff1673ffffffffffffffffffffffffffffffffffffffff16815260200160098201548152602001600a820160009054906101000a900460ff16151515158152602001600b8201548152602001600c8201548152505090508060600151801561110f5750806020015173ffffffffffffffffffffffffffffffffffffffff163373ffffffffffffffffffffffffffffffffffffffff16145b151561111a57600080fd5b806000015160600151816080015110151561113457600080fd5b600760009054906101000a900473ffffffffffffffffffffffffffffffffffffffff1673ffffffffffffffffffffffffffffffffffffffff166323b872dd338360000151600001518460000151604001516040518463ffffffff167c0100000000000000000000000000000000000000000000000000000000028152600401808473ffffffffffffffffffffffffffffffffffffffff1673ffffffffffffffffffffffffffffffffffffffff1681526020018373ffffffffffffffffffffffffffffffffffffffff1673ffffffffffffffffffffffffffffffffffffffff1681526020018281526020019350505050602060405180830381600087803b15801561123d57600080fd5b505af1158015611251573d6000803e3d6000fd5b505050506040513d602081101561126757600080fd5b8101908080519060200190929190505050151561128357600080fd5b600b6000848152602001908152602001600020600b016000815480929190600101919050555050919050565b60008060008060008060006112c2612786565b600b60008a815260200190815260200160002060c060405190810160405290816000820161010060405190810160405290816000820160009054906101000a900473ffffffffffffffffffffffffffffffffffffffff1673ffffffffffffffffffffffffffffffffffffffff1673ffffffffffffffffffffffffffffffffffffffff1681526020016001820154815260200160028201548152602001600382015481526020016004820154815260200160058201548152602001600682018054600181600116156101000203166002900480601f0160208091040260200160405190810160405280929190818152602001828054600181600116156101000203166002900480156114145780601f106113e957610100808354040283529160200191611414565b820191906000526020600020905b8154815290600101906020018083116113f757829003601f168201915b5050505050815260200160078201548152505081526020016008820160009054906101000a900473ffffffffffffffffffffffffffffffffffffffff1673ffffffffffffffffffffffffffffffffffffffff1673ffffffffffffffffffffffffffffffffffffffff16815260200160098201548152602001600a820160009054906101000a900460ff16151515158152602001600b8201548152602001600c8201548152505090508060000151600001518160200151826000015160e00151836040015184606001518560800151866000015160600151975097509750975097509750975050919395979092949650565b600660009054906101000a900473ffffffffffffffffffffffffffffffffffffffff1673ffffffffffffffffffffffffffffffffffffffff163373ffffffffffffffffffffffffffffffffffffffff1614151561156157600080fd5b600660009054906101000a900473ffffffffffffffffffffffffffffffffffffffff1673ffffffffffffffffffffffffffffffffffffffff167ff8df31144d9c2f0f6b59d69b8b98abd5459d07f2742c4df920b25aae33c6482060405160405180910390a26000600660006101000a81548173ffffffffffffffffffffffffffffffffffffffff021916908373ffffffffffffffffffffffffffffffffffffffff160217905550565b600b6020528060005260406000206000915090508060000161010060405190810160405290816000820160009054906101000a900473ffffffffffffffffffffffffffffffffffffffff1673ffffffffffffffffffffffffffffffffffffffff1673ffffffffffffffffffffffffffffffffffffffff1681526020016001820154815260200160028201548152602001600382015481526020016004820154815260200160058201548152602001600682018054600181600116156101000203166002900480601f0160208091040260200160405190810160405280929190818152602001828054600181600116156101000203166002900480156117505780601f1061172557610100808354040283529160200191611750565b820191906000526020600020905b81548152906001019060200180831161173357829003601f168201915b50505050508152602001600782015481525050908060080160009054906101000a900473ffffffffffffffffffffffffffffffffffffffff169080600901549080600a0160009054906101000a900460ff169080600b01549080600c0154905086565b600660009054906101000a900473ffffffffffffffffffffffffffffffffffffffff1681565b6000600660009054906101000a900473ffffffffffffffffffffffffffffffffffffffff1673ffffffffffffffffffffffffffffffffffffffff163373ffffffffffffffffffffffffffffffffffffffff1614151561183757600080fd5b61183f6124c5565b90508073ffffffffffffffffffffffffffffffffffffffff1663a9059cbb338373ffffffffffffffffffffffffffffffffffffffff166370a08231306040518263ffffffff167c0100000000000000000000000000000000000000000000000000000000028152600401808273ffffffffffffffffffffffffffffffffffffffff1673ffffffffffffffffffffffffffffffffffffffff168152602001915050602060405180830381600087803b1580156118f957600080fd5b505af115801561190d573d6000803e3d6000fd5b505050506040513d602081101561192357600080fd5b81019080805190602001909291905050506040518363ffffffff167c0100000000000000000000000000000000000000000000000000000000028152600401808373ffffffffffffffffffffffffffffffffffffffff1673ffffffffffffffffffffffffffffffffffffffff16815260200182815260200192505050602060405180830381600087803b1580156119b957600080fd5b505af11580156119cd573d6000803e3d6000fd5b505050506040513d60208110156119e357600080fd5b81019080805190602001909291905050501515611a68576040517f08c379a00000000000000000000000000000000000000000000000000000000081526004018080602001828103825260128152602001807f556e61626c6520746f207472616e73666572000000000000000000000000000081525060200191505060405180910390fd5b50565b600a6020528060005260406000206000915090508060000160009054906101000a900473ffffffffffffffffffffffffffffffffffffffff1690806001015490806002015490806003015490806004015490806005015490806006018054600181600116156101000203166002900480601f016020809104026020016040519081016040528092919081815260200182805460018160011615610100020316600290048015611b5b5780601f10611b3057610100808354040283529160200191611b5b565b820191906000526020600020905b815481529060010190602001808311611b3e57829003601f168201915b5050505050908060070154905088565b60095481565b60085481565b611b7f6127dc565b611b87612786565b600a600084815260200190815260200160002061010060405190810160405290816000820160009054906101000a900473ffffffffffffffffffffffffffffffffffffffff1673ffffffffffffffffffffffffffffffffffffffff1673ffffffffffffffffffffffffffffffffffffffff1681526020016001820154815260200160028201548152602001600382015481526020016004820154815260200160058201548152602001600682018054600181600116156101000203166002900480601f016020809104026020016040519081016040528092919081815260200182805460018160011615610100020316600290048015611cc85780601f10611c9d57610100808354040283529160200191611cc8565b820191906000526020600020905b815481529060010190602001808311611cab57829003601f168201915b505050505081526020016007820154815250509150600760009054906101000a900473ffffffffffffffffffffffffffffffffffffffff1673ffffffffffffffffffffffffffffffffffffffff166323b872dd33846000015185604001516040518463ffffffff167c0100000000000000000000000000000000000000000000000000000000028152600401808473ffffffffffffffffffffffffffffffffffffffff1673ffffffffffffffffffffffffffffffffffffffff1681526020018373ffffffffffffffffffffffffffffffffffffffff1673ffffffffffffffffffffffffffffffffffffffff1681526020018281526020019350505050602060405180830381600087803b158015611dde57600080fd5b505af1158015611df2573d6000803e3d6000fd5b505050506040513d6020811015611e0857600080fd5b81019080805190602001909291905050501515611e2457600080fd5b60c0604051908101604052808381526020013373ffffffffffffffffffffffffffffffffffffffff16815260200160095481526020016001151581526020016000815260200160008152509050600d60003373ffffffffffffffffffffffffffffffffffffffff1673ffffffffffffffffffffffffffffffffffffffff16815260200190815260200160002081604001519080600181540180825580915050906001820390600052602060002001600090919290919091505550600d6000836000015173ffffffffffffffffffffffffffffffffffffffff1673ffffffffffffffffffffffffffffffffffffffff1681526020019081526020016000208160400151908060018154018082558091505090600182039060005260206000200160009091929091909150555080600b6000600954815260200190815260200160002060008201518160000160008201518160000160006101000a81548173ffffffffffffffffffffffffffffffffffffffff021916908373ffffffffffffffffffffffffffffffffffffffff1602179055506020820151816001015560408201518160020155606082015181600301556080820151816004015560a0820151816005015560c0820151816006019080519060200190612003929190612838565b5060e08201518160070155505060208201518160080160006101000a81548173ffffffffffffffffffffffffffffffffffffffff021916908373ffffffffffffffffffffffffffffffffffffffff16021790555060408201518160090155606082015181600a0160006101000a81548160ff021916908315150217905550608082015181600b015560a082015181600c0155905050600b60006009548152602001908152602001600020600b0160008154809291906001019190505550600960008154809291906001019190505550505050565b600760009054906101000a900473ffffffffffffffffffffffffffffffffffffffff1681565b600660009054906101000a900473ffffffffffffffffffffffffffffffffffffffff1673ffffffffffffffffffffffffffffffffffffffff163373ffffffffffffffffffffffffffffffffffffffff1614151561215957600080fd5b612165848484846124ef565b50505050565b600660009054906101000a900473ffffffffffffffffffffffffffffffffffffffff1673ffffffffffffffffffffffffffffffffffffffff163373ffffffffffffffffffffffffffffffffffffffff161415156121c757600080fd5b6121d08161268a565b50565b6000806121de6127dc565b600760009054906101000a900473ffffffffffffffffffffffffffffffffffffffff1673ffffffffffffffffffffffffffffffffffffffff166323b872dd33308a6040518463ffffffff167c0100000000000000000000000000000000000000000000000000000000028152600401808473ffffffffffffffffffffffffffffffffffffffff1673ffffffffffffffffffffffffffffffffffffffff1681526020018373ffffffffffffffffffffffffffffffffffffffff1673ffffffffffffffffffffffffffffffffffffffff1681526020018281526020019350505050602060405180830381600087803b1580156122d757600080fd5b505af11580156122eb573d6000803e3d6000fd5b505050506040513d602081101561230157600080fd5b8101908080519060200190929190505050151561231d57600080fd5b603c860242019150610100604051908101604052803373ffffffffffffffffffffffffffffffffffffffff1681526020018a8152602001898152602001858152602001888152602001838152602001868152602001600854815250905080600a6000600854815260200190815260200160002060008201518160000160006101000a81548173ffffffffffffffffffffffffffffffffffffffff021916908373ffffffffffffffffffffffffffffffffffffffff1602179055506020820151816001015560408201518160020155606082015181600301556080820151816004015560a0820151816005015560c0820151816006019080519060200190612425929190612838565b5060e08201518160070155905050600c60003373ffffffffffffffffffffffffffffffffffffffff1673ffffffffffffffffffffffffffffffffffffffff1681526020019081526020016000208160e0015190806001815401808255809150509060018203906000526020600020016000909192909190915055506008600081548092919060010191905055508060e00151925050509695505050505050565b6000600260009054906101000a900473ffffffffffffffffffffffffffffffffffffffff16905090565b600060056000866000191660001916815260200190815260200160002060009054906101000a900473ffffffffffffffffffffffffffffffffffffffff16905060056000866000191660001916815260200190815260200160002060006101000a81549073ffffffffffffffffffffffffffffffffffffffff021916905584600019167fe1fe3afa0f7f761ff0a8b89086790efd5140d2907ebd5b7ff6bfcb5e075fd4c560405160405180910390a28073ffffffffffffffffffffffffffffffffffffffff16636ee4d553868686866040518563ffffffff167c0100000000000000000000000000000000000000000000000000000000028152600401808560001916600019168152602001848152602001837bffffffffffffffffffffffffffffffffffffffffffffffffffffffff19167bffffffffffffffffffffffffffffffffffffffffffffffffffffffff19168152602001828152602001945050505050600060405180830381600087803b15801561266b57600080fd5b505af115801561267f573d6000803e3d6000fd5b505050505050505050565b600073ffffffffffffffffffffffffffffffffffffffff168173ffffffffffffffffffffffffffffffffffffffff16141515156126c657600080fd5b8073ffffffffffffffffffffffffffffffffffffffff16600660009054906101000a900473ffffffffffffffffffffffffffffffffffffffff1673ffffffffffffffffffffffffffffffffffffffff167f8be0079c531659141344cd1fd0a4f28419497f9722a3daafe3b4186f6b6457e060405160405180910390a380600660006101000a81548173ffffffffffffffffffffffffffffffffffffffff021916908373ffffffffffffffffffffffffffffffffffffffff16021790555050565b6101a06040519081016040528061279b6128b8565b8152602001600073ffffffffffffffffffffffffffffffffffffffff1681526020016000815260200160001515815260200160008152602001600081525090565b61010060405190810160405280600073ffffffffffffffffffffffffffffffffffffffff168152602001600081526020016000815260200160008152602001600081526020016000815260200160608152602001600081525090565b828054600181600116156101000203166002900490600052602060002090601f016020900481019282601f1061287957805160ff19168380011785556128a7565b828001600101855582156128a7579182015b828111156128a657825182559160200191906001019061288b565b5b5090506128b49190612914565b5090565b61010060405190810160405280600073ffffffffffffffffffffffffffffffffffffffff168152602001600081526020016000815260200160008152602001600081526020016000815260200160608152602001600081525090565b61293691905b8082111561293257600081600090555060010161291a565b5090565b905600a165627a7a72305820fa9b9d3e482dc4c0c6ce91a7495165fecb73c3043208148f11c9408a8af793c90029",
    "source": "pragma solidity 0.4.24;\n\nimport \"chainlink/contracts/ChainlinkClient.sol\";\nimport \"openzeppelin-solidity/contracts/ownership/Ownable.sol\";\nimport \"./lib/IERC20.sol\";\n\ncontract Insuralink is ChainlinkClient, Ownable {\n\n  struct InsuranceContractTemplate {\n    address seller;\n    uint256 paymentFrequency;\n    uint256 paymentAmount;\n    uint256 totalNumberOfPayments;\n    uint256 insuranceAmount;\n    uint256 validUntil;\n    string description;\n    uint256 id;\n  }\n\n  struct InsuranceContract {\n    InsuranceContractTemplate contractTemplate;\n    address buyer;\n    uint256 id;\n    bool valid;\n    uint256 numberOfPayments;\n    uint256 lastPaymentTime;\n  }\n\n  IERC20 public DAI;\n  uint256 public templateCounter;\n  uint256 public activeCounter;\n  mapping (uint256 => InsuranceContractTemplate) public contractTemplates;\n  mapping (uint256 => InsuranceContract) public activeContracts;\n  mapping (address => uint256[]) templatesByUser;\n  mapping (address => uint256[]) activeContractsByUser;\n\n  /**\n   * @notice Deploy the contract with a specified address for the LINK\n   * and Oracle contract addresses\n   * @dev Sets the storage for the specified addresses\n   * @param _link The address of the LINK token contract\n   */\n  constructor(address _link, address daiToken) public {\n    //TODO set chainlink oracle address (for now just 1)\n    if (_link == address(0)) {\n      setPublicChainlinkToken();\n    } else {\n      setChainlinkToken(_link);\n    }\n\n    DAI = IERC20(daiToken);\n    //TODO\n    setChainlinkOracle(address(0));\n  }\n\n  function createInsuranceContractTemplate(uint256 paymentFrequency, uint256 paymentAmount, uint256 insuranceAmount, uint256 length,\n    string memory description, uint256 totalNumberOfPayments) public returns(uint256) {\n      //Ensure DAI is deposited on creation\n      require(DAI.transferFrom(msg.sender, address(this), insuranceAmount));\n      uint256 validUntil = now + (length * (1 minutes));\n      InsuranceContractTemplate memory template = InsuranceContractTemplate(msg.sender, paymentFrequency, \n        paymentAmount, totalNumberOfPayments, insuranceAmount, validUntil, description, templateCounter);\n      contractTemplates[templateCounter] = template;\n      templatesByUser[msg.sender].push(template.id);\n      templateCounter++;\n      return template.id;\n  }\n\n  function buyContract(uint256 contractTemplateId) public {\n    InsuranceContractTemplate memory template = contractTemplates[contractTemplateId];\n    //Pay first insurance payment on buy in\n    require(DAI.transferFrom(msg.sender, template.seller, template.paymentAmount));\n    InsuranceContract memory insuranceContract = InsuranceContract(template, msg.sender, activeCounter, true, 0, 0);\n    activeContractsByUser[msg.sender].push(insuranceContract.id);\n    activeContractsByUser[template.seller].push(insuranceContract.id);\n    activeContracts[activeCounter] = insuranceContract;\n    activeContracts[activeCounter].numberOfPayments++;\n    activeCounter++;\n  }\n\n  /** Function to trigger payout\n  * Called by the oracle when the sensor passes the threshold\n  * TODO ensure only the oracle(s) can call this function\n  */\n  function payoutInsurance(uint256 contractId) public returns(bool) {\n    InsuranceContract memory insuranceContract = activeContracts[contractId];\n    require(insuranceContract.valid);\n    require(DAI.transfer(insuranceContract.buyer, insuranceContract.contractTemplate.insuranceAmount));\n    activeContracts[contractId].valid = false;\n  }\n\n  function payPremium(uint256 contractId) public returns(bool) {\n    InsuranceContract memory insuranceContract = activeContracts[contractId];\n    require(insuranceContract.valid && msg.sender == insuranceContract.buyer);\n    require(insuranceContract.numberOfPayments < insuranceContract.contractTemplate.totalNumberOfPayments);\n    require(DAI.transferFrom(msg.sender, insuranceContract.contractTemplate.seller,\n      insuranceContract.contractTemplate.paymentAmount));\n    activeContracts[contractId].numberOfPayments++;\n  }\n\n  function getContract(uint256 contractId) public view returns(address, address, uint256, uint256, bool, uint256, uint256) {\n    InsuranceContract memory insuranceContract = activeContracts[contractId];\n    return(insuranceContract.contractTemplate.seller, insuranceContract.buyer, \n      insuranceContract.contractTemplate.id, insuranceContract.id, insuranceContract.valid,\n      insuranceContract.numberOfPayments, insuranceContract.contractTemplate.totalNumberOfPayments);\n  }\n\n  function getActiveContractTemplate(uint256 contractId) public view returns(address, uint256, uint256, uint256,\n      uint256, string, uint256) {\n    InsuranceContractTemplate memory template = activeContracts[contractId].contractTemplate;\n    return (template.seller, template.paymentFrequency, template.paymentAmount, template.insuranceAmount,\n      template.validUntil, template.description, template.id);\n  }\n\n  //TODO\n  //depositDai\n\n  //Chainlink Code\n  /**\n   * @notice Returns the address of the LINK token\n   * @dev This is the public implementation for chainlinkTokenAddress, which is\n   * an internal method of the ChainlinkClient contract\n   */\n  function getChainlinkToken() public view returns (address) {\n    return chainlinkTokenAddress();\n  }\n\n  /**\n   * @notice The fulfill method from requests created by this contract\n   * @dev The recordChainlinkFulfillment protects this function from being called\n   * by anyone other than the oracle address that the request was sent to\n   * @param _requestId The ID that was generated for the request\n   * @param _data The answer provided by the oracle\n   */\n  function fulfill(bytes32 _requestId, uint256 _data)\n    public\n    recordChainlinkFulfillment(_requestId)\n  {\n    //TODO\n  }\n\n  /**\n   * @notice Allows the owner to withdraw any LINK balance on the contract\n   */\n  function withdrawLink() public onlyOwner {\n    LinkTokenInterface link = LinkTokenInterface(chainlinkTokenAddress());\n    require(link.transfer(msg.sender, link.balanceOf(address(this))), \"Unable to transfer\");\n  }\n\n  /**\n   * @notice Call this method if no response is received within 5 minutes\n   * @param _requestId The ID that was generated for the request to cancel\n   * @param _payment The payment specified for the request to cancel\n   * @param _callbackFunctionId The bytes4 callback function ID specified for\n   * the request to cancel\n   * @param _expiration The expiration generated for the request to cancel\n   */\n  function cancelRequest(\n    bytes32 _requestId,\n    uint256 _payment,\n    bytes4 _callbackFunctionId,\n    uint256 _expiration\n  )\n    public\n    onlyOwner\n  {\n    cancelChainlinkRequest(_requestId, _payment, _callbackFunctionId, _expiration);\n  }\n}",
    "sourcePath": "/Users/raymogg/dev/SDL/EthDevner/insuracelink-contracts/contracts/Insuralink.sol",
    "compiler": {
        "name": "solc",
        "version": "0.4.24+commit.e67f0147.Emscripten.clang"
    },
    "schemaVersion": "3.0.2",
    "updatedAt": "2020-02-15T23:33:01.488Z",
    "devdoc": {
        "methods": {
            "cancelRequest(bytes32,uint256,bytes4,uint256)": {
                "params": {
                    "_callbackFunctionId": "The bytes4 callback function ID specified for the request to cancel",
                    "_expiration": "The expiration generated for the request to cancel",
                    "_payment": "The payment specified for the request to cancel",
                    "_requestId": "The ID that was generated for the request to cancel"
                }
            },
            "fulfill(bytes32,uint256)": {
                "details": "The recordChainlinkFulfillment protects this function from being called by anyone other than the oracle address that the request was sent to",
                "params": {
                    "_data": "The answer provided by the oracle",
                    "_requestId": "The ID that was generated for the request"
                }
            },
            "getChainlinkToken()": {
                "details": "This is the public implementation for chainlinkTokenAddress, which is an internal method of the ChainlinkClient contract"
            },
            "renounceOwnership()": {
                "details": "Allows the current owner to relinquish control of the contract."
            },
            "transferOwnership(address)": {
                "details": "Allows the current owner to transfer control of the contract to a newOwner.",
                "params": {
                    "_newOwner": "The address to transfer ownership to."
                }
            }
        }
    },
    "userdoc": {
        "methods": {
            "cancelRequest(bytes32,uint256,bytes4,uint256)": {
                "notice": "Call this method if no response is received within 5 minutes"
            },
            "fulfill(bytes32,uint256)": {
                "notice": "The fulfill method from requests created by this contract"
            },
            "getChainlinkToken()": {
                "notice": "Returns the address of the LINK token"
            },
            "payoutInsurance(uint256)": {
                "notice": "Function to trigger payout Called by the oracle when the sensor passes the threshold TODO ensure only the oracle(s) can call this function"
            },
            "renounceOwnership()": {
                "notice": "Renouncing to ownership will leave the contract without an owner. It will not be possible to call the functions with the `onlyOwner` modifier anymore."
            },
            "withdrawLink()": {
                "notice": "Allows the owner to withdraw any LINK balance on the contract"
            }
        }
    }
}